:100000000EC01DC01CC01BC01AC019C018C017C02C
:1000100016C015C014C013C012C011C010C01124E6
:100020001FBECFE5D2E0DEBFCDBF20E0A0E6B0E04E
:1000300001C01D92A136B207E1F734D03AC0E0CF3B
:1000400081E287B986E886B90895C09A0895C09874
:100050000895C19A0895C1980895F7DFFCDFC39809
:100060000000FECFF4DFF5DFC39A0895369A0895B5
:10007000369905C085B18A3908F4EFDFF7CF0895C6
:10008000B89AB99ABB9ABC980895C49B08C080914D
:1000900060008F5F80936000853018F0DEDF109283
:1000A00060000895CDDFECDFE1DFDCDFE1DFEDDFD5
:0600B000FDCFF894FFCF24
:00000001FF
